S01500004C43594D505F454D545F46524D2E7372656301
S11300000C9434000C9451000C9451000C94510045
S11300100C9451000C9451000C9451000C94510018
S11300200C9451000C9451000C9451000C94510008
S11300300C9451000C9451000C9451000C945100F8
S11300400C9451000C9451000C9451000C945100E8
S11300500C9451000C9451000C9451000C945100D8
S11300600C9451000C94510011241FBECFEFD8E022
S1130070DEBFCDBF11E0A0E0B1E0E2ECF1E002C0F0
S113008005900D92AA30B107D9F721E0AAE0B1E0BA
S113009001C01D92AB30B207E1F70E945D000C94E1
S11300A0DF000C9400008FEF8AB91BB884B18C7FF9
S11300B084B985B1836085B908950E945300189B63
S11300C01DC0199B1BC080910A018A3010F0109248
S11300D00A01E0910A01F0E0E050FF4F80818BB902
S11300E02FE986E891E0215080409040E1F700C07C
S11300F0000080910A018F5F80930A0118992AC039
S1130100199B28C080910A0181110FC080910001C0
S11301108BB92FE986E891E0215080409040E1F7C7
S113012000C0000089E080930A01E0910A01F0E038
S1130130E050FF4F80818BB92FE986E891E0215090
S113014080409040E1F700C0000080910A01815096
S113015080930A01189B12C0199910C0E0910A01FA
S1130160F0E0E050FF4F80818BB92FE986E891E001
S1130170215080409040E1F700C0000018999FCFC3
S113018019999DCFE0910A01EA3018F010920A0102
S113019010C0E0FF0EC0F0E0E050FF4F80818BB94B
S11301A02FE986E891E0215080409040E1F700C0BB
S11301B0000080910A018F5F80930A0180CFF89438
S10501C0FFCF6B
S10D01C23F065B4F666D7D077F6FFB
S9030000FC
